:100000000C9434000C943E000C943E000C943E0082
:100010000C943E000C943E000C943E000C943E0068
:100020000C943E000C943E000C943E000C943E0058
:100030000C943E000C943E000C943E000C943E0048
:100040000C943E000C943E000C943E000C943E0038
:100050000C943E000C943E000C943E000C943E0028
:100060000C943E000C943E0011241FBECFEFD8E04C
:10007000DEBFCDBF0E9440000C941A020C94000019
:10008000CF93DF93CDB7DEB72E970FB6F894DEBFD0
:100090000FBECDBF84E290E02FEFFC01208385E20C
:1000A00090E025E230E0F90120812160FC0120830D
:1000B0008AE290E0FC0110828BE290E02BE230E0DB
:1000C000F90120812160FC01208385E290E025E296
:1000D00030E0F901308121E02327FC01208389E20F
:1000E00090E0FC018081882F90E081709927892B16
:1000F00051F085E290E025E230E0F90120812160B5
:10010000FC01208309C085E290E025E230E0F9019E
:1001100020812E7FFC01208380E090E0A8ECB2E4F7
:1001200089839A83AB83BC8320E030E04AE755E4BF
:1001300069817A818B819C810E948501DC01CB01E0
:100140008D839E83AF83B88720E030E040E85FE393
:100150006D817E818F8198850E94FF0088232CF419
:1001600081E090E09A8789873FC020E03FEF4FE72A
:1001700057E46D817E818F8198850E9480011816D9
:100180004CF520E030E040E251E469817A818B81D6
:100190009C810E948501DC01CB01BC01CD010E9444
:1001A0000401DC01CB019A8789870FC080E991E0C7
:1001B0009C878B878B859C850197F1F79C878B8724
:1001C00089859A8501979A87898789859A85892B58
:1001D00069F714C06D817E818F8198850E9404012A
:1001E000DC01CB019A87898789859A859E878D87CF
:1001F0008D859E850197F1F79E878D8766CF0E943A
:10020000330108F481E008950E945F0188F09F5750
:1002100098F0B92F9927B751B0F0E1F0660F771F2A
:10022000881F991F1AF0BA95C9F714C0B13091F020
:100230000E947901B1E008950C947901672F782F1D
:100240008827B85F39F0B93FCCF3869577956795E5
:10025000B395D9F73EF490958095709561957F4F51
:100260008F4F9F4F0895990F0008550FAA0BE0E894
:10027000FEEF16161706E807F907C0F01216130668
:10028000E407F50798F0621B730B840B950B39F4A8
:100290000A2661F0232B242B252B21F408950A260E
:1002A00009F4A140A6958FEF811D811D089557FD8A
:1002B0009058440F551F59F05F3F71F04795880FD4
:1002C00097FB991F61F09F3F79F08795089512166B
:1002D00013061406551FF2CF4695F1DF08C0161617
:1002E00017061806991FF1CF8695710561050894C8
:1002F0000895E894BB2766277727CB0197F90895DF
:100300000E94330108F48FEF08950E9498010C9425
:1003100009020E94FB0138F00E94020220F095239E
:1003200011F00C94F2010C94F80111240C947A0150
:100330000E94570170F3959FC1F3950F50E0551F30
:10034000629FF001729FBB27F00DB11D639FAA272A
:10035000F00DB11DAA1F649F6627B00DA11D661F79
:10036000829F2227B00DA11D621F739FB00DA11D9A
:10037000621F839FA00D611D221F749F3327A00D54
:10038000611D231F849F600D211D822F762F6A2FF0
:1003900011249F5750409AF0F1F088234AF0EE0F55
:1003A000FF1FBB1F661F771F881F91505040A9F782
:1003B0009E3F510580F00C94F2010C947A015F3F4E
:1003C000E4F3983ED4F3869577956795B795F795BE
:1003D000E7959F5FC1F7FE2B880F911D9695879536
:1003E00097F9089597F99F6780E870E060E00895B5
:1003F0009FEF80EC089500240A941616170618063D
:100400000906089500240A94121613061406050618
:100410000895092E0394000C11F4882352F0BB0FA9
:1004200040F4BF2B11F460FF04C06F5F7F4F8F4F0C
:080430009F4F0895F894FFCFDF
:00000001FF
